:040000008A11112828
:10000800FE00030EFA000408FB000A08FC00831235
:1000180003137F08FD008A15532E8A15B82A2E1C53
:1000280087282E10AD1FAE1B08004408031DAE190B
:100038001E2822280B30FB22C4010800851D262813
:100048000A30FB2A5A300317E400A530E5000313F1
:100058000E100D14831607080F393038870006086C
:100068000F3930388600A00183120317DA01DB014B
:1000780003133B08BF003A08BE00AD1C48283B08E4
:10008800CA003A08C900AD103908803A031D56283D
:100098008030A7000C30A800C83005120511A20056
:1000A800A10075283908403A031D5E288C30A70046
:1000B8000A304F28390B6C288030A7000C30A80074
:1000C800C83005150512A200A100A401A3017728D4
:1000D8008030A7000C30A800C83005110516A20111
:1000E800A101A400A3003230A001B501BC01BD01EB
:1000F800AE12AE100B120317DE01DF01D9000B168A
:100108000313AE170800AE1F08002E1F8F282122E8
:100118008A110A30FB2A0A303502031C962821224C
:100128008A111E28033003175F02E83003195E02A4
:10013800031CA62883160313A41BA62821228A11B0
:100148000930FB2A83120313051AB928200803195A
:10015800B9280330CB01B7218A114C08C1004B08DC
:10016800C000051AB928AE14BA28AE100519CB2854
:1001780020080319CB280530CB01B7218A114C0878
:10018800C3004B08C2000519CB282E15CC282E1108
:10019800AE1CD52808304102023003194002031C66
:1001A800DE282E1DE72808304302023003194202D8
:1001B8000318E728AC0A0A302C02031C08002E1783
:1001C800051605150800AC01AE1E70292E1E080084
:1001D8000E30CB01B7214C08BD004B08BC00CB004A
:1001E8003D08CC004C30CD01CE01D201D1004030C9
:1001F800D000CF018A1563238A114C08BD004B0833
:10020800BC000F3EBC003D080318013E003EBD0087
:100218002E12AE1C3D293C08B8238A114008CF0095
:100228004108D000D101D20184218A1168238A11A2
:1002380084218A1189238A1184218A11BE238A1173
:1002480084218A119E238A1107238A11B1238A11D6
:1002580003196C02031C3229C8303C2900306D0296
:100268001E3003196C0203183B291E303C296C0808
:10027800A2002E1D08003C08B8238A114208CF00AE
:100288004308D000D101D20184218A1168238A1140
:1002980084218A1189238A1184218A11BE238A1113
:1002A80084218A119E238A1107238A11B1238A1176
:1002B80003196C02031C6329C830A400080000302D
:1002C8006D021E3003196C0203186D291E30A4003C
:1002D80008006C08A4000800AE1C75293908031929
:1002E80081292E1D7A29390303198129AE182E1D5B
:1002F80008003908803A031D08000830AE16FB2AAA
:10030800D301D401D501D6014B1C9E294F08D30730
:10031800500803110318013E031DD40751080311A7
:100328000318013E031DD507520803110318013EA7
:10033800031DD6070310CF0DD00DD10DD20D03101C
:10034800CE0CCD0CCC0CCB0C4E084D044C044B04FD
:10035800031D88295608CE005508CD005408CC0046
:100368005308CB000800CF001030D301D400E03090
:10037800D501D601D001D101D20199054F089904C0
:1003880098159819C5291708D700F030D801D70E45
:10039800D80ED80557080F39D804F030D705180EED
:1003A8000F39D70454085802031DDC295308570293
:1003B8000318E2295808D4005708D30056085802F1
:1003C800031DE82955085702031CEE295808D600D2
:1003D8005708D5005708D0070318D10A5808D1077D
:1003E8004B080319FC290630D20A5202031CC429FF
:1003F8004B0803191C2A55085307CD005608031843
:10040800560A5407CE00CD09CE09CD0A0319CE0AE3
:100418004D08D7004E08D8005008D7070318D80A47
:100428005108D8070310D80CD70C0310D80CD70CD8
:100438005808CC005708CB0008008312AE1F0800EC
:10044800AE130D102E1305160317E401E5014F3006
:1004580083160313A40506080F3990388600831203
:100468008515831607080F3990388700831285167B
:100478003908C039031D492A0630B70A3702031C58
:10048800832A0130B701B906832AB701832A0A30C3
:10049800D1000530D201593E840083170008E400DA
:1004A800840A0008E500F030E40EE50EE50564086E
:1004B8000F39E504F030E4056408D3006508D4007A
:1004C800792A0A30D100D20103175F080313CC0040
:1004D80003175E080313CB000F30CD00CE014F2366
:1004E8008A114C08D4004B08D300C4238A1152083F
:1004F8000317DF00031351080317DE008E2A39089B
:10050800003A03198E2A403A03194B2AC03A0319B4
:10051800652A8E2A0317A7238A1103176308031372
:100528006702031DA72A0317620803136602031D47
:10053800A72A0317610803136502031DA72A0317D7
:100548006008031364020318CA2A0317A7238A1131
:1005580064080317E00203136508031C650FB52A36
:10056800B72A0317E10203136608031C660FBD2AA6
:10057800BF2A0317E20203136708031C670FC52A83
:10058800C72A0317E30203130317D42A6030840031
:1005980083178001840A8001840A8001840A80010B
:1005A80003300317DE01DF010313DA01D900E43059
:1005B800D8001830D7000730593E84008317000848
:1005C800CB00840A0008CC00840A0008CD00840A05
:1005D8000008CE006430CF00D001D101D2018421BF
:1005E8008A119E238A1107235708AF000800831237
:1005F8000313CB002A06031908000530B001A9002F
:100608004B08AA000800DF01E001E101E2015A08F5
:100618005904580457040319462BE301E30ADA1B6B
:100628001B2B0310D70DD80DD90DDA0D122B031083
:10063800DF0DE00DE10DE20D5A085E02031D2E2BC1
:1006480059085D02031D2E2B58085C02031D2E2B32
:1006580057085B02031C402B5708DB025808031C91
:10066800580FDC025908031C590FDD025A08031CF5
:100678005A0FDE025F140310DA0CD90CD80CD70C11
:10068800E30B1B2B6208DA006108D9006008D80068
:100698005F08D7000800CF01D0014B1C592B4D082B
:1006A800CF070318D00A4E08D0070310CD0DCE0D82
:1006B8000310CC0CCB0C4C084B04031D512B5008D9
:1006C800CC004F08CB0008004B08E8004C08E900B4
:1006D8004D08EA004E08EB000C300310EB0CEA0C56
:1006E800E90CE80CFF3E031D712B6908A600680899
:1006F800A500CB002608CC00CD01CE012508CF00EF
:100708002608D000D101D20108004E08DA004D08B1
:10071800D9004C08D8004B08D7002708CB00280878
:10072800CC00CD01CE012708CF002808D000D10188
:10073800D20108004E08DE004D08DD004C08DC0040
:100748004B08DB0008005E080313E40003175F088A
:100758000313E500E601E70108005808ED00570813
:10076800EC0000306D02C834CB003D08CC00CD0150
:10077800CE010800C830CF00D001D101D201080055
:10078800D501D601520851040319E92BD701D70A1C
:10079800D21BD22B0310D10DD20DCB2B0310D50DAC
:1007A800D60D52085402031DDB2B51085302031CBB
:1007B800E52B5108D3025208031CD403D402551464
:1007C8000310D20CD10CD70BD22B5608D2005508E7
:1007D800D1000800E300630BF72B0330A900522671
:1007E8008A11F8238A11BA2D6430C40001248A11B1
:1007F80083122F0861248A11BA2DDE006330DD01CF
:10080800E0015E02031C1C2C10308316AE00B600FB
:10081800BE00C600CE00DE0009308312CE000230D2
:10082800CF248A110930CE000330CF248A113A2C04
:100838005E08DD00DF010A305D02031C2A2CF63059
:10084800DD070A30DF0A5F02031C1F2C5F08CE0099
:100858000230CF248A115D08CE000330CF248316DE
:10086800AE01B601BE01C601CE01DE018312E00170
:1008780060088A3E840088300318013EFF008A1110
:1008880000278A115E020730031C4F2CE00A600221
:10089800031C3C2C07306002031C542C0630E0007B
:1008A80060087E258A1183122D1D5E2C1030831658
:1008B800E60008008316E6010800DF006330DE0169
:1008C800E201E1015F02031C862CE2016208DD00FF
:1008D8000310DD0D0310DD0D03105D0DAD3E84002A
:1008E800103080000730E20A6202031C6A2C0930CB
:1008F800CE000030CF248A110930CE000130CF2439
:100908008A11B02C5F08DE00E0010A305E02031C89
:10091800942CF630DE070A30E00A6002031C892CAA
:100928006008CE000030CF248A115E08CE00013066
:10093800CF248A11E2016208DD000310DD0D0310E7
:10094800DD0D03105D0DAD3E84000730831380017B
:10095800E20A6202031C9F2CE10161088A3E8400BE
:1009680088300318013EFF008A1100278A115F02B0
:100978000730031CC42CE10A6102031CB12C0730A8
:100988006102031CC92C0630E100610842251030C1
:100998008316E5000800DB000A304E020318080041
:1009A80005305B02031808004E08803E840088303A
:1009B8000318013EFF008A1100278A11DA00DC01C2
:1009C8005A18E82CD801EA2C1030D8000E30D9017A
:1009D800CB005B083425483ECF0088300318013E21
:1009E800D00003105C0D4F07840050080318500A0C
:1009F800FF008A1100278A11D100A9300310D10DF8
:100A08000310D10D0310D10D5107D2000E30CB00C9
:100A18005B083425483ED30088300318013ED400D3
:100A280003105C0D5307D50054080318013ED60087
:100A380001305507840056080318560AFF008A112A
:100A480000278A115207D7008400580883138000B2
:100A580007300310DA0CDC0A5C0203180800E42CE7
:100A6800CD00CC014B084D18CC070310CB0D03105B
:100A7800CD0CCD08031D362D4C080800CC00CD0147
:100A88004D08CB000310CB0D0310CB0D03104B0DFD
:100A9800AD3E8400073083138001CD0A4D02031850
:100AA800692D442D10308316DD0010308316CD00DB
:100AB80010308316C50010308316BD001030831621
:100AC800B50010308316AD0008004C08013A031930
:100AD800652D033A0319622D013A03195F2D073A70
:100AE80003195C2D013A0319592D033A0319562DA0
:100AF8007D2D0800CC00CD014D08CB000310CB0D97
:100B08000310CB0D03104B0DAE3E8400073083134A
:100B18008001CD0A4D020318A52D802D10308316B3
:100B2800DE0010308316CE0010308316C600103059
:100B38008316BE0010308316B60010308316AE0040
:100B480008004C08013A0319A12D033A03199E2DF8
:100B5800013A03199B2D073A0319982D013A0319F5
:100B6800952D033A0319922DB92D08008312CB0154
:100B7800C52DCB01D02DCB01CB0AD02D0230CB0017
:100B8800D02D3908003A0319BD2D403A0319BF2D5D
:100B9800C03A0319C22DD02D34084B060319F42D81
:100BA8008316AF01B701BF01C701CF01D701E70124
:100BB800B001B80183124B08B400F42D103083162D
:100BC800AF00B700BF00080010308316C700CF0081
:100BD800D700080010308316E700B000B8000800FE
:100BE8004B08003A0319E22D013A0319E82D033A9C
:100BF8000319EE2DFF2D0800831264300313E4015E
:100C0800B20A3202031C0B2EB2013C268A112D1D9A
:100C1800122E2A030319122E0530AA0030082A06BC
:100C280003191A2EE401E40A2A08B0002A08003A37
:100C380003193B2E013A03192B2E053A03192D2EC1
:100C48000C3A03192F2E043A0319312E3B2E64084F
:100C58004A2E6408EE2B64084A2E2D1D362E0530C8
:100C6800AA000800A901AA012A08B000522E08000B
:100C78000B302902031C422E0A30A9002908031D43
:100C8800A90B08000C30AA00B0000800E300630BB1
:100C980008000B30A90052268A11F82B4030CB01EE
:100CA800CC00A930572ECE00CF00D0014C085002FE
:100CB8000318080050084F07CD0084004B08831321
:100CC8008000D00A5A2E0313061D6D2E8316211498
:100CD8006F2E831621108312851B752E8316A1147F
:100CE800772E8316A110210822060319B12E02308F
:100CF800A30A2302031CB22EA21CA11C8C2E323084
:100D0800A50AA6002414A701A801E7268A11902E97
:100D1800A218A118902E24108316221C211C9C2E88
:100D2800241AA72EA41683122E148316A413A72EF2
:100D380022182118A72EA41EA72E8A1121228A1153
:100D48002E108316A41283120317DC01DD0183160B
:100D58000313A3012108A200B22EA3012608031938
:100D6800B72EA603B82EA501241CD92E00302802C0
:100D78009630031927020318C92EA70A0319A80ACF
:100D880083120317DC01DD01D92E2410A5018A1175
:100D980021228A112E10AD1FD42E0330AD13D62E6A
:100DA8000230AD178A11FB228A1183160313A50896
:100DB800031DE22E210805390319080083120317C1
:100DC800DC01DD010800EF2E4030EB2E8030B90049
:100DD800FB2EB901FB2E83123908003A0319E82EBD
:100DE800403A0319EA2EC03A0319ED2EFB2E0430BF
:060DF800AD148A11FB2A74
:100E0000FF1B0A2F83137F1883170008840A031916
:100E1000FF0A08007F087F398A000408840A031942
:100E2000FF0A8200E4340C34F2340C3400340D3404
:100E30000E340D341C340D342A340D3438340D3452
:100E400046340D3454340D3462340D3470340D3462
:100E50007A340D3484340D348E340D3498340D349A
:100E6000A2340D34AC340D34B6340D34C0340D34EA
:100E7000CA340D34D4340D34DE340D34E8340D343A
:100E8000F2340D34FC340D3406340E3410340E3488
:100E90001A340E3424340E342E340E3438340E34D6
:100EA0003C340E3440340E3444340E3448340E3462
:100EB0004C340E3450340E3454340E3458340E3412
:100EC0005C340E3460340E3464340E3468340E34C2
:100ED0006C340E3470340E3474340E3478340E3472
:100EE0007C340E3480340E3484340E3488340E3422
:100EF0008C340E3490340E3494340E3498340E34D2
:100F00009C340E34A0340E34A4340E34A8340E3481
:100F1000AC340E34B0340E34B4340E34B8340E3431
:100F2000BC340E34C0340E34C4340E34C8340E34E1
:100F3000CC340E34D0340E34D4340E34D8340E3491
:100F4000E2340E34EC340E34F6340E3400340F3404
:100F50000A340F3414340F341E340F3428340F3451
:100F600032340F343C340F3446340F3450340F34A1
:100F70005A340F3464340F346E340F3478340F34F1
:100F800082340F348C340F3496340F34A0340F3441
:100F9000A5340F34AA340F34AF340F34B4340F34C3
:100FA000B9340F34BE340F34C3340F34C8340F3463
:100FB000CD340F342C341034013402340134033472
:100FC0000134043401340534013406340134073467
:100FD000023401340234033402340434023405345C
:100FE0000234063402340734033401340334023447
:100FF000033404340334053403340634033407342F
:101000000434013404340234043403340434053425
:10101000043406340434073405340134053402340E
:1010200005340334053404340534063405340734F8
:1010300006340134063402340634033406340434EE
:1010400006340534063407340734013407340234D7
:1010500007340334073404340734053407340634C2
:1010600008340134083402340834033408340434B6
:1010700008340534083406340134083402340834A2
:1010800000340034083407340034003400340034B1
:1010900001340034023400340334003404340034A6
:1010A000053400340634003407340034003401348D
:1010B000023401340334013404340134053401347E
:1010C000063401340734013400340234013402346C
:1010D0000334023404340234053402340634023456
:1010E000073402340034033401340334023403344B
:1010F000043403340534033406340334073403342E
:101100003F3406345B344F3466346D347D340734F9
:101110007F346F3410341E342C343A34483456340F
:1011200064348A15812F8A158F2F8A159D2F8A1571
:10113000AB2F8A15B92F8A15C72F8A15D52F8A1577
:10114000E32F8A152A2F8A15332F8A153C2F8A15EB
:10115000452F8A154E2F8A15572F8A15602F8A150D
:02116000692FF5
:1015600064008001840A0406031900340406B12AC9
:101570002030831384004B308A15B0228A15A030A6
:101580008400E9308A15B02283018A15D82B2030D7
:1015900083138400803004020318D22A03138001CD
:1015A000840ACA2AA0308400F03004020318DC2A1E
:1015B00003138001840AD42A20308317840060300A
:1015C00004020318E72A03138001840ADF2A831325
:1015D0008312031308002D1D042B051B012B8316FA
:1015E0000330A00A2002031C080083122D11AD1144
:1015F0008316A001831207300317DC01DD018A1175
:10160000FB2A8316A0010800051F012B8316033057
:10161000A00A2002031C080006308A11FB222D15A7
:10162000AD118316A00183120317DA01DB01080054
:10163000831203132D1D512BAD19462B0F303B0286
:101640006E3003193A02031C422B10303B027C30EF
:1016500003193A02031C051B312B64304402031C9E
:10166000422B003003175B02143003195A0203188F
:101670003D2BDA0A0319DB0A0800DA01DB01031348
:10168000AD1508000317DA01DB0108002A08053A46
:10169000031D08004408643A031D08004408B6000E
:1016A000422BA908031D0800013003175D022C30EE
:1016B00003195C020318602BDC0A0319DD0A080019
:1016C00003132D100800D401CE1F732BCB09CC09B6
:1016D000CD09CE09CB0A0319CC0A0319CD0A031987
:1016E000CE0AD401D40AD21F822BCF09D009D10946
:1016F000D209CF0A0319D00A0319D10A0319D20A51
:101700000130D406D501D601D701D8014E084D04C9
:101710004C044B040319C12BD301D30ACE1B962BC7
:101720000310CB0DCC0DCD0DCE0D8D2B0310D50D93
:10173000D60DD70DD80D4E085202031DA92B4D080A
:101740005102031DA92B4C085002031DA92B4B0865
:101750004F02031CBB2B4B08CF024C08031C4C0F41
:10176000D0024D08031C4D0FD1024E08031C4E0F32
:10177000D20255140310CE0CCD0CCC0CCB0CD30BD9
:10178000962B54080319CF2BD509D609D709D809A8
:10179000D50A0319D60A0319D70A0319D80A580813
:1017A000CE005708CD005608CC005508CB000800E5
:1017B00064008B01831203138D018A15A8248A15F6
:1017C0008A15E1248A158A1508258A158A15232584
:1017D0008A1503176508A53A5A3003196406031DD4
:1017E0000C2C0313AE172E108A1121228A150A30F1
:1017F0008A11FB228A15051B2D15061D012C831647
:1018000022148316A401A50183122D120317DC01F3
:10181000DD0103132D14222C8A15C7228A150030EE
:101820000313B9010317E3000330E200E430E100E1
:101830001830E00064300313AF0001308A11FB223E
:101840008A152D162D1F7C2C2D13640083120E304B
:101850000313CB01CB0A8A11B7218A154C08BB00B0
:101860004B08BA00CB003B08CC004B30CD01CE0179
:10187000D201D100D001CF018A1563238A154C080B
:10188000BB004B08BA008A1540258A158312031342
:101890002D1A792CAE1F702C0A303B02F030031940
:1018A0003A020318552CB50A562CB501EA30031735
:1018B0005F02603003195E020318762CDE0A0319FA
:1018C000DF0A00305F02023003195E02031C762C2F
:1018D0000313AE1C762C3B08BD003A08BC00762CE6
:1018E0008A15EB228A158A1518238A158A1167260C
:1018F0008A158A1100268A1583122D1C832C8A11C1
:1019000013208A15222C8A1587248A15222CA908CF
:101910000319AB1E0800AD1E0800B7248A1502305B
:101920000317DC00DD0103175D085C0403130319D2
:10193000A62C2D1F932C2D13640001308312031746
:10194000DC020030031CDD03DD02932C2D140800A3
:101950000F08FC3903388F00D0248A158312031333
:101960008F11D0248A15831203130F15D02C2D1A32
:101970002D12051B0800111714171516E1248A15DE
:101980008B018D010F16D0248A1563008312031377
:101990000F12D0248A1508258A15E1248A15232DD3
:1019A0000000000000000000000000000000000037
:1019B0000000000000000000000000000000000027
:1019C0000800FC30831203138500893083168800D9
:1019D000363087008600113085000430831286007F
:1019E000663083168F008E00F0308D0066308C00DC
:1019F0008312870183169000D83083120317850560
:101A0000F83003139805053098043F309905080015
:101A10008312F03003130D100E1096050330960458
:101A2000161796161616F330831681050C308104AE
:101A300064008B118312FC3003138C118316810513
:101A4000033081040800831211170B120C121112BB
:101A5000F030910511149C30810090001417F03083
:101A60008B128C12940505309404833092009300FD
:101A70001516FC300B130C1395050B1611130800EB
:101A8000AD1E1C2EAE1F492DC501C601C701C801E0
:101A900008002D1DAB2D3A08143ECB003B0803185F
:101AA000013ECC004A084C02031D582D49084B0248
:101AB000031CAD18662DC501C6014D268A150319F4
:101AC0004702031C8A2DC701C8018A2DC701C8011E
:101AD000AD14AD19842D0F303B02B43003193A0216
:101AE0000318842D0310440D46268A1100278A15F9
:101AF000CB008A1100278A15CC003B02031D822DE2
:101B00004B083A02031C882DC50A0319C60A8A2D00
:101B1000C501C6010A304402031C962D5A30440206
:101B20000318962DB830CE000B30992DA030CE0082
:101B30000F30CF004602031D9F2D4E084502031CA7
:101B400008006430C501C6014402031CC40A4408ED
:101B5000031DAE1108000230C501C6014402031C7A
:101B60000B2E0310440D46268A1100278A15CB0040
:101B70008A1100278A15CC003B02031DC12D4B089A
:101B80003A020318C72DC70A0319C80AC92DC7018D
:101B9000C80100304802643003194702031C0800E2
:101BA000C701C8014408D000D0080319EA2DD003AA
:101BB0000310500D46268A1100278A15CB008A1182
:101BC00000278A15CC003B02031DE82D4B083A0282
:101BD000031CD42D50081E3ECB00003003180130EA
:101BE000CC00803ACD0080304D02031DF92D440811
:101BF0004B0203180800831203135008C400092E77
:101C00004D268A1503194702031C0800C701C801A5
:101C1000C401AD1408000C303B02B23003193A0283
:101C2000031C002E0C30C701C8013B02E43003192D
:101C30003A0203180800082E2A030319412EAD1694
:101C4000C501C601C701C801AD14C4016430440216
:101C500003183E2E0310440D46268A1100278A15CC
:101C6000CB008A1100278A15CC004A02031D3A2EA8
:101C70004B084902031C3E2EC40A262E4408B60017
:101C800008003B08CA003A08C9000800123E840058
:101C900087300318013EFF000800C70A0319C80A6D
:101CA0000030480264340E1E5D2EAE1B2E1B5B2ED0
:101CB000051605152E170E12912E0E1C6A2EAE1B40
:101CC000632E0D1C682E2E1B682E051605152E176B
:101CD0000E10912E0C1E822E64300317D90A590261
:101CE000031C752ED90103132D179C268A15310864
:101CF00003197D2E8610B101802E8614B101B10A20
:101D00000C12912E0C1C862E0C10912E8C1C8A2EDF
:101D10008C10912E0C1D8E2E0C11912E8C1D912E3F
:101D20008C117D08FF007C088A007B0884007A0EF5
:101D30008300FE0E7E0E0900F801F901F901790811
:101D400028278A150830F90A7902031C9F2EF90109
:101D50000630F0008312031333081A27DC3EF30029
:101D600087300318013EF4000310790D73078400D7
:101D700074080318740AFF008A1100278A150038B6
:101D80000319142F0630F00033081A27DC3EF30045
:101D900087300318013EF4000310790D73078400A7
:101DA00074080318740AFF008A1100278A15FF3E81
:101DB000F7000630F00033081A27DC3EF3008730C6
:101DC0000318013EF4000310790D7307F500740841
:101DD0000318013EF60001307507840076080318E9
:101DE000760AFF008A1100278A15FF3EF80077085F
:101DF000F300A9300310F30D0310F30D0310F30DDE
:101E00007307F40078087407F500840083138008D2
:101E100003190F2FF001F00A78087F278A15033085
:101E2000F90A7902031CA82EB30A3308123A0319DF
:101E3000B3010800F100F20170087118F2070310F5
:101E4000F00D0310F10CF108031D1C2F720808009F
:101E5000F000722F83120313861583160D080F39B5
:101E600010388D000800831203130714831610081E
:101E7000F039013890000800831203138714831689
:101E800010080F391038900008008312031306164B
:101E900083160E08F03901388E00080083120313F0
:101EA000861683160E080F3910388E00080083122C
:101EB0000313061783160F08F03901388F00080046
:101EC00083120313861783160F080F3910388F00FB
:101ED000080083120313061483160C08F039013826
:101EE0008C00080070088400083004020318080001
:101EF00008308A000310040DA13E82000800F100A2
:101F0000F12F83160D080F3960388D007008031902
:101F10008C2F831286150800831286110800831601
:101F20001008F03906389000700803199A2F8312B0
:101F300007140800831207100800831610080F39D1
:101F40006038900070080319A82F831287140800C6
:101F500083128710080083160E08F03906388E00A9
:101F600070080319B62F8312061608008312061292
:101F7000080083160E080F3960388E0070080319A8
:101F8000C42F831286160800831286120800831657
:101F90000F08F03906388F0070080319D22F83120A
:101FA0000617080083120613080083160F080F395E
:101FB00060388F0070080319E02F8312861708001D
:101FC00083128613080083160C08F03906388C003B
:101FD00070080319EE2F83120614080083120610EE
:101FE0000800710884000830040203180800083053
:101FF0008A000310040D913E820008000034003472
:00000001FF
