:100000008A31112800000000FE00030EFA000408E7
:10000800FB000A08FC00833203337F08FD008A35B1
:10001000532E8A35B82A2E3C87282E30AD3FAE3B72
:1000180040004408033DAE391E2822280B19FB2254
:10002000C4014000853D26280A19FB2A5A190337C6
:10002800E400A519E50003330E300D3483360708C4
:100030000F1B301A870006080F1B301A8600A0011C
:1000380083320337DA01DB0103333B08BF003A0898
:10004000BE00AD3C48283B08CA003A08C900AD30A4
:100048003908801D033D56288019A7000C19A800FF
:10005000C81905320531A200A10075283908401DD4
:10005800033D5E288C19A7000A194F28390B6C2814
:100060008019A7000C19A800C81905350532A2008F
:10006800A100A401A30177288019A7000C19A800F2
:10007000C81905310536A201A101A400A300321957
:10007800A001B501BC01BD01AE32AE300B32033771
:10008000DE01DF01D9000B360333AE374000AE3F4F
:1000880040002E3F8F2821228A310A19FB2A0A199B
:100090003502033C962821228A311E280319033792
:100098005F02E81903395E02033CA628833603335E
:1000A000A43BA62821228A310919FB2A8332033373
:1000A800053AB92820080339B9280319CB01B72123
:1000B0008A314C08C1004B08C000053AB928AE345B
:1000B800BA28AE300539CB2820080339CB280519D2
:1000C000CB01B7218A314C08C3004B08C200053967
:1000C800CB282E35CC282E31AE3CD5280819410234
:1000D000021903394002033CDE282E3DE7280819A7
:1000D80043020219033942020338E728AC0A0A1915
:1000E0002C02033C40002E37053605354000AC019C
:1000E800AE3E70292E3E40000E19CB01B7214C08B8
:1000F000BD004B08BC00CB003D08CC004C19CD0125
:1000F800CE01D201D1004019D000CF018A35632347
:100100008A314C08BD004B08BC000F1CBC003D08E8
:100108000338011C001CBD002E32AE3C3D293C08C2
:10011000B8238A314008CF004108D000D101D20174
:1001180084218A3168238A3184218A3189238A316A
:1001200084218A31BE238A3184218A319E238A31F7
:1001280007238A31B1238A3103396C02033C32290F
:10013000C8193C2900196D021E1903396C020338D5
:100138003B291E193C296C08A2002E3D40003C08B2
:10014000B8238A314208CF004308D000D101D20140
:1001480084218A3168238A3184218A3189238A313A
:1001500084218A31BE238A3184218A319E238A31C7
:1001580007238A31B1238A3103396C02033C6329AE
:10016000C819A400400000196D021E1903396C0261
:1001680003386D291E19A40040006C08A400400043
:10017000AE3C75293908033981292E3D7A29390386
:1001780003398129AE382E3D40003908801D033DE2
:1001800040000819AE36FB2AD301D401D501D601AF
:100188004B3C9E294F08D307500803310338011C04
:10019000033DD407510803310338011C033DD50743
:10019800520803310338011C033DD6070330CF0D45
:1001A000D00DD10DD20D0330CE0CCD0CCC0CCB0C20
:1001A8004E084D044C044B04033D88295608CE00E4
:1001B0005508CD005408CC005308CB004000CF00B8
:1001B8001019D301D400E019D501D601D001D1011D
:1001C000D20199054F08990498359839C52917081F
:1001C800D700F019D801D70ED80ED80557080F1B3D
:1001D000D804F019D705180E0F1BD704540858027D
:1001D800033DDC29530857020338E2295808D400A4
:1001E0005708D30056085802033DE829550857021E
:1001E800033CEE295808D6005708D5005708D00711
:1001F0000338D10A5808D1074B080339FC290619DE
:1001F800D20A5202033CC4294B0803391C2A550869
:100200005307CD0056080338560A5407CE00CD09CF
:10020800CE09CD0A0339CE0A4D08D7004E08D800CA
:100210005008D7070338D80A5108D8070330D80C3C
:10021800D70C0330D80CD70C5808CC005708CB00A3
:1002200040008332AE3F4000AE330D302E330536F2
:100228000337E401E5014F1983360333A4050608B3
:100230000F1B901A860083328535833607080F1B03
:10023800901A8700833285363908C01B033D492A46
:100240000619B70A3702033C832A0119B701B90618
:10024800832AB701832A0A19D1000519D201591C3A
:10025000840083370008E400840A0008E500F019F0
:10025800E40EE50EE50564080F1BE504F019E40556
:100260006408D3006508D400792A0A19D100D201A4
:1002680003375F080333CC0003375E080333CB0042
:100270000F19CD00CE014F238A314C08D4004B0812
:10027800D300C4238A3152080337DF0003335108FF
:100280000337DE008E2A3908001D03398E2A401DEF
:1002880003394B2AC01D0339652A8E2A0337A72351
:100290008A310337630803336702033DA72A033714
:10029800620803336602033DA72A03376108033364
:1002A0006502033DA72A033760080333640203385D
:1002A800CA2A0337A7238A3164080337E0020333D5
:1002B0006508033C650FB52AB72A0337E10203330B
:1002B8006608033C660FBD2ABF2A0337E2020333F0
:1002C0006708033C670FC52AC72A0337E3020333D5
:1002C8000337D42A6019840083378001840A8001A7
:1002D000840A8001840A800103190337DE01DF01EB
:1002D8000333DA01D900E419D8001819D70007192F
:1002E000591C840083370008CB00840A0008CC0026
:1002E800840A0008CD00840A0008CE006419CF00F3
:1002F000D001D101D20184218A319E238A31072382
:1002F8005708AF00400083320333CB002A06033986
:1003000040000519B001A9004B08AA004000DF0118
:10030800E001E101E2015A0859045804570403398D
:10031000462BE301E30ADA3B1B2B0330D70DD80D44
:10031800D90DDA0D122B0330DF0DE00DE10DE20DE2
:100320005A085E02033D2E2B59085D02033D2E2B19
:1003280058085C02033D2E2B57085B02033C402B08
:100330005708DB025808033C580FDC025908033CFD
:10033800590FDD025A08033C5A0FDE025F340330BE
:10034000DA0CD90CD80CD70CE30B1B2B6208DA00A3
:100348006108D9006008D8005F08D7004000CF01D5
:10035000D0014B3C592B4D08CF070338D00A4E082B
:10035800D0070330CD0DCE0D0330CC0CCB0C4C08A0
:100360004B04033D512B5008CC004F08CB004000FC
:100368004B08E8004C08E9004D08EA004E08EB008D
:100370000C190330EB0CEA0CE90CE80CFF1C033DF4
:10037800712B6908A6006808A500CB002608CC00E8
:10038000CD01CE012508CF002608D000D101D20131
:1003880040004E08DA004D08D9004C08D8004B0848
:10039000D7002708CB002808CC00CD01CE012708C4
:10039800CF002808D000D101D20140004E08DE006D
:1003A0004D08DD004C08DC004B08DB0040005E0817
:1003A8000333E40003375F080333E500E601E701A0
:1003B00040005808ED005708EC0000196D02C818FD
:1003B800CB003D08CC00CD01CE014000C819CF00CC
:1003C000D001D101D2014000D501D601520851041B
:1003C8000339E92BD701D70AD23BD22B0330D10D01
:1003D000D20DCB2B0330D50DD60D52085402033D60
:1003D800DB2B51085302033CE52B5108D30252088A
:1003E000033CD403D40255340330D20CD10CD70BC8
:1003E800D22B5608D2005508D1004000E300630B19
:1003F000F72B0319A90052268A31F8238A31BA2D26
:1003F8006419C40001248A3183322F0861248A31A8
:10040000BA2DDE006319DD01E0015E02033C1C2C05
:1004080010198336AE00B600BE00C600CE00DE006E
:1004100009198332CE000219CF248A310919CE007E
:100418000319CF248A313A2C5E08DD00DF010A195E
:100420005D02033C2A2CF619DD070A19DF0A5F0278
:10042800033C1F2C5F08CE000219CF248A315D08D7
:10043000CE000319CF248336AE01B601BE01C6013A
:10043800CE01DE018332E00160088A1C840088193D
:100440000338011CFF008A3100278A315E02071938
:10044800033C4F2CE00A6002033C3C2C0719600275
:10045000033C542C0619E00060087E258A31833263
:100458002D3D5E2C10198336E60040008336E601F8
:100460004000DF006319DE01E201E1015F02033CAD
:10046800862CE2016208DD000330DD0D0330DD0D6E
:1004700003305D0DAD1C8400101980000719E20ADD
:100478006202033C6A2C0919CE000019CF248A3184
:100480000919CE000119CF248A31B02C5F08DE0093
:10048800E0010A195E02033C942CF619DE070A19EA
:10049000E00A6002033C892C6008CE000019CF24DA
:100498008A315E08CE000119CF248A31E201620850
:1004A000DD000330DD0D0330DD0D03305D0DAD1CCF
:1004A8008400071983338001E20A6202033C9F2C0F
:1004B000E10161088A1C840088190338011CFF00CF
:1004B8008A3100278A315F020719033CC42CE10AFC
:1004C0006102033CB12C07196102033CC92C0619D7
:1004C800E1006108422510198336E5004000DB0091
:1004D0000A194E020338400005195B020338400038
:1004D8004E08801C840088190338011CFF008A31EB
:1004E00000278A31DA00DC015A38E82CD801EA2CDE
:1004E8001019D8000E19D901CB005B083425481C17
:1004F000CF0088190338011CD00003305C0D4F0772
:1004F800840050080338500AFF008A3100278A31E7
:10050000D100A9190330D10D0330D10D0330D10D25
:100508005107D2000E19CB005B083425481CD300D4
:1005100088190338011CD40003305C0D5307D50043
:1005180054080338011CD6000119550784005608F1
:100520000338560AFF008A3100278A315207D70064
:10052800840058088333800007190330DA0CDC0A8A
:100530005C0203384000E42CCD00CC014B084D3860
:10053800CC070330CB0D0330CD0CCD08033D362D51
:100540004C084000CC00CD014D08CB000330CB0D52
:100548000330CB0D03304B0DAD1C840007198333EA
:100550008001CD0A4D020338692D442D10198336D0
:10055800DD0010198336CD0010198336C500101937
:100560008336BD0010198336B50010198336AD00EF
:1005680040004C08011D0339652D031D0339622D18
:10057000011D03395F2D071D03395C2D011D033952
:10057800592D031D0339562D7D2D4000CC00CD018A
:100580004D08CB000330CB0D0330CB0D03304B0DAA
:10058800AE1C8400071983338001CD0A4D0203385D
:10059000A52D802D10198336DE0010198336CE006C
:1005980010198336C60010198336BE001019833629
:1005A000B60010198336AE0040004C08011D033917
:1005A800A12D031D03399E2D011D03399B2D071D08
:1005B0000339982D011D0339952D031D0339922D03
:1005B800B92D40008332CB01C52DCB01D02DCB0105
:1005C000CB0AD02D0219CB00D02D3908001D0339DC
:1005C800BD2D401D0339BF2DC01D0339C22DD02DAF
:1005D00034084B060339F42D8336AF01B701BF0150
:1005D800C701CF01D701E701B001B80183324B0849
:1005E000B400F42D10198336AF00B700BF004000EF
:1005E80010198336C700CF00D70040001019833692
:1005F000E700B000B80040004B08001D0339E22DB1
:1005F800011D0339E82D031D0339EE2DFF2D4000A1
:10060000833264190333E401B20A3202033C0B2E35
:10060800B2013C268A312D3D122E2A030339122EBF
:100610000519AA0030082A0603391A2EE401E40A53
:100618002A08B0002A08001D03393B2E011D0339A2
:100620002B2E051D03392D2E0C1D03392F2E041DD5
:100628000339312E3B2E64084A2E6408EE2B6408E9
:100630004A2E2D3D362E0519AA004000A901AA0117
:100638002A08B000522E40000B192902033C422E12
:100640000A19A9002908033DA90B40000C19AA00AA
:10064800B0004000E300630B40000B19A9005226DC
:100650008A31F82B4019CB01CC00A919572ECE00B6
:10065800CF00D0014C0850020338400050084F0723
:10066000CD0084004B0883338000D00A5A2E033318
:10066800063D6D2E833621346F2E8336213083323A
:10067000853B752E8336A134772E8336A130210831
:1006780022060339B12E0219A30A2302033CB22E23
:10068000A23CA13C8C2E3219A50AA6002434A70155
:10068800A801E7268A31902EA238A138902E24306E
:100690008336223C213C9C2E243AA72EA43683325A
:100698002E348336A433A72E22382138A72EA43E21
:1006A000A72E8A3121228A312E308336A43283321A
:1006A8000337DC01DD0183360333A3012108A200EF
:1006B000B22EA30126080339B72EA603B82EA50132
:1006B800243CD92E00192802961903392702033839
:1006C000C92EA70A0339A80A83320337DC01DD01EA
:1006C800D92E2430A5018A3121228A312E30AD3F1E
:1006D000D42E0319AD33D62E0219AD378A31FB2241
:1006D8008A3183360333A508033DE22E2108051B22
:1006E0000339400083320337DC01DD014000EF2E87
:1006E8004019EB2E8019B900FB2EB901FB2E83327D
:1006F0003908001D0339E82E401D0339EA2EC01DBC
:1006F8000339ED2EFB2E0419AD348A31FB2A000094
:10070000FF3B0A2F83337F3883370008840A03397D
:10070800FF0A40007F087F1B8A000408840A033917
:10071000FF0A8200E4180C18F2180C1800180D18C3
:100718000E180D181C180D182A180D1838180D1851
:1007200046180D1854180D1862180D1870180D1869
:100728007A180D1884180D188E180D1898180D18A9
:10073000A2180D18AC180D18B6180D18C0180D1801
:10073800CA180D18D4180D18DE180D18E8180D1859
:10074000F2180D18FC180D1806180E1810180E18AF
:100748001A180E1824180E182E180E1838180E1805
:100750003C180E1840180E1844180E1848180E1899
:100758004C180E1850180E1854180E1858180E1851
:100760005C180E1860180E1864180E1868180E1809
:100768006C180E1870180E1874180E1878180E18C1
:100770007C180E1880180E1884180E1888180E1879
:100778008C180E1890180E1894180E1898180E1831
:100780009C180E18A0180E18A4180E18A8180E18E9
:10078800AC180E18B0180E18B4180E18B8180E18A1
:10079000BC180E18C0180E18C4180E18C8180E1859
:10079800CC180E18D0180E18D4180E18D8180E1811
:1007A000E2180E18EC180E18F6180E1800180F188C
:1007A8000A180F1814180F181E180F1828180F18E1
:1007B00032180F183C180F1846180F1850180F1839
:1007B8005A180F1864180F186E180F1878180F1891
:1007C00082180F188C180F1896180F18A0180F18E9
:1007C800A5180F18AA180F18AF180F18B4180F1873
:1007D000B9180F18BE180F18C3180F18C8180F181B
:1007D800CD180F182C181018011802180118031832
:1007E000011804180118051801180618011807182F
:1007E800021801180218031802180418021805182C
:1007F000021806180218071803180118031802181F
:1007F800031804180318051803180618031807180F
:10080000041801180418021804180318041805180D
:1008080004180618041807180518011805180218FE
:1008100005180318051804180518061805180718F0
:1008180006180118061802180618031806180418EE
:1008200006180518061807180718011807180218DF
:1008280007180318071804180718051807180618D2
:1008300008180118081802180818031808180418CE
:1008380008180518081806180118081802180818C2
:1008400000180018081807180018001800180018D9
:1008480001180018021800180318001804180018D6
:1008500005180018061800180718001800180118C5
:1008580002180118031801180418011805180118BE
:1008600006180118071801180018021801180218B4
:1008680003180218041802180518021806180218A6
:1008700007180218001803180118031802180318A3
:10087800041803180518031806180318071803188E
:100880003F1806185B184F1866186D187D18071862
:100888007F186F1810181E182C183A184818561880
:1008900064188A35812F8A358F2F8A359D2F8A35A6
:10089800AB2F8A35B92F8A35C72F8A35D52F8A3598
:1008A000E32F8A352A2F8A35332F8A353C2F8A3514
:1008A800452F8A354E2F8A35572F8A35602F8A353E
:1008B000692F0000000000000000000000000000A0
:1008B8000000000000000000000000000000000030
:1008C0000000000000000000000000000000000028
:1008C8000000000000000000000000000000000020
:1008D0000000000000000000000000000000000018
:100AB000041E8001840A0406033900180406B12AC2
:100AB8002019833384004B198A35B0228A35A0194E
:100AC0008400E9198A35B02283018A35D82B201990
:100AC80083338400801904020338D22A0333800157
:100AD000840ACA2AA0198400F01904020338DC2A07
:100AD80003338001840AD42A2019833784006019DB
:100AE00004020338E72A03338001840ADF2A8333B0
:100AE8008332033340002D3D042B053B012B833615
:100AF0000319A00A2002033C400083322D31AD319E
:100AF8008336A001833207190337DC01DD018A310F
:100B0000FB2A8336A0014000053F012B83360319E1
:100B0800A00A2002033C400006198A31FB222D3539
:100B1000AD318336A00183320337DA01DB014000B7
:100B1800833203332D3D512BAD39462B0F193B0240
:100B20006E1903393A02033C422B10193B027C191F
:100B280003393A02033C053B312B64194402033C68
:100B3000422B001903375B02141903395A02033898
:100B38003D2BDA0A0339DB0A4000DA01DB01033313
:100B4000AD3540000337DA01DB0140002A08051DFE
:100B4800033D40004408641D033D40004408B600CE
:100B5000422BA908033D4000011903375D022C19FF
:100B580003395C020338602BDC0A0339DD0A4000E4
:100B600003332D304000D401CE3F732BCB09CC0989
:100B6800CD09CE09CB0A0339CC0A0339CD0A03399A
:100B7000CE0AD401D40AD23F822BCF09D009D109A1
:100B7800D209CF0A0339D00A0339D10A0339D20A74
:100B80000119D406D501D601D701D8014E084D046C
:100B88004C044B040339C12BD301D30ACE3B962B1B
:100B90000330CB0DCC0DCD0DCE0D8D2B0330D50DEF
:100B9800D60DD70DD80D4E085202033DA92B4D088E
:100BA0005102033DA92B4C085002033DA92B4B08D1
:100BA8004F02033CBB2B4B08CF024C08033C4C0FB5
:100BB000D0024D08033C4D0FD1024E08033C4E0FAE
:100BB800D20255340330CE0CCD0CCC0CCB0CD30B5D
:100BC000962B54080339CF2BD509D609D709D80954
:100BC800D50A0339D60A0339D70A0339D80A580887
:100BD000CE005708CD005608CC005508CB00400089
:100BD800041E8B01833203338D018A35A8248A359C
:100BE0008A35E1248A358A3508258A358A352325D0
:100BE8008A3503376508A51D5A1903396406033D7C
:100BF0000C2C0333AE372E308A3121228A350A1964
:100BF8008A31FB228A35053B2D35063D012C83368B
:100C000022348336A401A50183322D320337DC015F
:100C0800DD0103332D34222C8A35C7228A35001999
:100C10000333B9010337E3000319E200E419E100EB
:100C18001819E00064190333AF0001198A31FB2267
:100C20008A352D362D3F7C2C2D33041E83320E1930
:100C28000333CB01CB0A8A31B7218A354C08BB0084
:100C30004B08BA00CB003B08CC004B19CD01CE01CC
:100C3800D201D100D001CF018A3563238A354C080F
:100C4000BB004B08BA008A3540258A35833203330E
:100C48002D3A792CAE3F702C0A193B02F019033962
:100C50003A020338552CB50A562CB501EA19033768
:100C58005F02601903395E020338762CDE0A033915
:100C6000DF0A00195F02021903395E02033C762C89
:100C68000333AE3C762C3B08BD003A08BC00762C1A
:100C70008A35EB228A358A3518238A358A316726E8
:100C78008A358A3100268A3583322D3C832C8A3185
:100C800013208A35222C8A3587248A35222CA908FC
:100C88000339AB3E4000AD3E4000B7248A35021917
:100C90000337DC00DD0103375D085C0403330339EF
:100C9800A62C2D3F932C2D33041E011983320337C4
:100CA000DC020019033CDD03DD02932C2D344000EF
:100CA8000F08FC1B031A8F00D0248A3583320333C4
:100CB0008F31D0248A35833203330F35D02C2D3A2F
:100CB8002D32053B4000113714371536E1248A35AB
:100CC0008B018D010F36D0248A35031E8332033306
:100CC8000F32D0248A3508258A35E1248A35232D28
:100CD0000000000000000000000000000000000014
:100CD800000000000000000000000000000000000C
:100CE0004000FC198332033385008919833688005C
:100CE8003619870086001119850004198332860099
:100CF000661983368F008E00F0198D0066198C00FE
:100CF8008332870183369000D819833203378505FC
:100D0000F81903339805051998043F19990540000F
:100D08008332F01903330D300E309605031996041B
:100D1000163796361636F319833681050C19810479
:100D1800041E8B318332FC1903338C3183368105F1
:100D2000031981044000833211370B320C32113227
:100D2800F019910511349C19810090001437F019BD
:100D30008B328C3294050519940483199200930028
:100D38001536FC190B330C3395050B36113340006F
:100D4000AD3E1C2EAE3F492DC501C601C701C801ED
:100D480040002D3DAB2D3A08141CCB003B0803385E
:100D5000011CCC004A084C02033D582D49084B02A7
:100D5800033CAD38662DC501C6014D268A350339D9
:100D60004702033C8A2DC701C8018A2DC701C8016B
:100D6800AD34AD39842D0F193B02B41903393A0259
:100D70000338842D0330440D46268A3100278A35F6
:100D7800CB008A3100278A35CC003B02033D822D07
:100D80004B083A02033C882DC50A0339C60A8A2D4E
:100D8800C501C6010A194402033C962D5A194402AA
:100D90000338962DB819CE000B19992DA019CE0045
:100D98000F19CF004602033D9F2D4E084502033C24
:100DA00040006419C501C6014402033CC40A44085A
:100DA800033DAE3140000219C501C6014402033CAF
:100DB0000B2E0330440D46268A3100278A35CB009E
:100DB8008A3100278A35CC003B02033DC12D4B0800
:100DC0003A020338C72DC70A0339C80AC92DC7011B
:100DC800C80100194802641903394702033C40006E
:100DD000C701C8014408D000D0080339EA2DD00368
:100DD8000330500D46268A3100278A35CB008A31E8
:100DE00000278A35CC003B02033DE82D4B083A0230
:100DE800033CD42D50081E1CCB00001903380119F0
:100DF000CC00801DCD0080194D02033DF92D440823
:100DF8004B0203384000833203335008C400092EE5
:100E00004D268A3503394702033C4000C701C8011B
:100E0800C401AD3440000C193B02B21903393A024F
:100E1000033C002E0C19C701C8013B02E419033939
:100E18003A0203384000082E2A030339412EAD3622
:100E2000C501C601C701C801AD34C401641944023B
:100E280003383E2E0330440D46268A3100278A3582
:100E3000CB008A3100278A35CC004A02033D3A2E86
:100E38004B084902033C3E2EC40A262E4408B6003D
:100E400040003B08CA003A08C9004000121C840058
:100E480087190338011CFF004000C70A0339C80A84
:100E50000019480264180E3E5D2EAE3B2E3B5B2E01
:100E5800053605352E370E32912E0E3C6A2EAE3BE6
:100E6000632E0D3C682E2E3B682E053605352E3739
:100E68000E30912E0C3E822E64190337D90A59028E
:100E7000033C752ED90103332D379C268A35310862
:100E780003397D2E8630B101802E8634B101B10A46
:100E80000C32912E0C3C862E0C30912E8C3C8A2EEE
:100E88008C30912E0C3D8E2E0C31912E8C3D912E56
:100E90008C317D08FF007C088A007B0884007A0E74
:100E98008300FE0E7E0E6000F801F901F901790861
:100EA00028278A350819F90A7902033C9F2EF9018F
:100EA8000619F0008332033333081A27DC1CF300D9
:100EB00087190338011CF4000330790D730784008F
:100EB80074080338740AFF008A3100278A35001A3B
:100EC0000339142F0619F00033081A27DC1CF3002D
:100EC80087190338011CF4000330790D7307840077
:100ED00074080338740AFF008A3100278A35FF1C22
:100ED800F7000619F00033081A27DC1CF3008719FD
:100EE0000338011CF4000330790D7307F500740812
:100EE8000338011CF60001197507840076080338D9
:100EF000760AFF008A3100278A35FF1CF800770840
:100EF800F300A9190330F30D0330F30D0330F30D9C
:100F00007307F40078087407F500840083338008C1
:100F080003390F2FF001F00A78087F278A35031973
:100F1000F90A7902033CA82EB30A3308121D0339DB
:100F1800B3014000F100F20170087138F2070330A4
:100F2000F00D0330F10CF108033D1C2F7208400056
:100F2800F000722F83320333863583360D080F1B8A
:100F3000101A8D00400083320333073483361008C3
:100F3800F01B011A90004000833203338734833654
:100F400010080F1B101A900040008332033306363E
:100F480083360E08F01B011A8E00400083320333EB
:100F5000863683360E080F1B101A8E00400083322F
:100F58000333063783360F08F01B011A8F00400051
:100F600083320333863783360F080F1B101A8F0026
:100F6800400083320333063483360C08F01B011A21
:100F70008C00400070088400081904020338400007
:100F780008198A000330040DA11C82004000F1000A
:100F8000F12F83360D080F1B601A8D00700803398E
:100F88008C2F833286354000833286314000833689
:100F90001008F01B061A9000700803399A2F83324C
:100F980007344000833207304000833610080F1BA7
:100FA000601A900070080339A82F833287344000FC
:100FA80083328730400083360E08F01B061A8E0005
:100FB00070080339B62F833206364000833206327A
:100FB800400083360E080F1B601A8E007008033934
:100FC000C42F833286364000833286324000833617
:100FC8000F08F01B061A8F0070080339D22F8332DE
:100FD0000637400083320633400083360F080F1B6C
:100FD800601A8F0070080339E02F8332863740008B
:100FE00083328633400083360C08F01B061A8C00CF
:100FE80070080339EE2F833206344000833206300E
:100FF00040007108840008190402033840000819F1
:100FF8008A000330040D911C82004000001800187C
:00000001FF
